:020000040800F2
:1000000000000220A9070008D9070008DB07000844
:10001000DD070008DF070008E10700080000000016
:10002000000000000000000000000000E3070008DE
:10003000E507000800000000E7070008E9070008DE
:10004000EB070008EB070008EB070008EB070008C8
:10005000EB070008EB070008EB070008EB070008B8
:10006000EB070008EB070008EB070008EB070008A8
:10007000EB070008EB070008EB070008EB07000898
:10008000EB070008EB070008EB0700080000000082
:10009000000000000000000000000000EB07000866
:1000A000EB070008EB070008EB070008EB07000868
:1000B000EB070008EB070008EB070008EB07000858
:1000C000EB070008EB070008EB070008EB07000848
:1000D000EB070008EB070008EB0700080000000032
:1000E000EB070008EB070008EB0700080000000022
:1000F000000000000000000000000000EB07000806
:1001000000000000EB070008EB070008EB07000801
:1001100000000000000000000000000000000000DF
:10012000EB070008EB070008EB070008EB070008E7
:10013000EB070008000000000000000000000000C5
:10014000000000000000000000000000EB070008B5
:10015000EB070008EB070008EB070008EB070008B7
:10016000EB070008EB07000800000000000000009B
:10017000000000000000000000000000000000007F
:1001800000000000EB070008EB070008EB07000881
:1001900010B5054C237833B9044B13B10448AFF3C1
:1001A00000800123237010BD6803002000000000C0
:1001B0000C59020808B5064B1BB106480649AFF3B7
:1001C00000800648036813B1054B03B1984708BD8A
:1001D000000000000C5902086C030020640300209A
:1001E00000000000154B002B08BF134B9D46A3F5E4
:1001F000803A00218B460F461348144A121A1AF00F
:10020000F5FA0F4B002B00D098470E4B002B00D077
:1002100098470020002104000D000D48002802D05E
:100220000C48AFF300801AF001F92000290000F01B
:10023000C9F906F0DFFB00BF000008000000022043
:1002400000000000000000006803002000220020E1
:100250000000000000000000036870B500211D6967
:1002600001220446A847431C05460ED021680222FD
:100270000E6920460021B0472268064613692046D1
:10028000294600229847304670BD0646FBE700BF6E
:100290000D4B0E4A30B4026003F58074002501E076
:1002A000A3420FD01A4652F8041B8142134608BFDE
:1002B00042F8045C53F8042B8242F1D1A34243F884
:1002C000045CEFD130BC704784030020781C020826
:1002D00038B50F4A0F4B02600446002503F58070C5
:1002E00001E083420FD01A4652F8041B8C42134699
:1002F00008BF42F8045C53F8042B9442F1D18342C6
:1003000043F8045CEFD1204607F080FB204638BD5F
:10031000781C020884030020044B186800B1704761
:1003200003480221032205F05FBF00BF000B00203D
:10033000A8210020F0B50F4685B0304906461BF0D5
:10034000B0F90446002836D030462D491BF0A9F9F3
:1003500060B330462B491BF0A4F900282FD02A485F
:10036000002406E05D680134181D35B10134402CCD
:1003700029D04568031D002DF4D131783A2936D0B3
:1003800002A8314605F0EEFF02A806F03DF8D0B114
:1003900002A806F025F8C8B102A806F02BF803461B
:1003A0008BB11A49E01C41F8243002E0FFF7B4FF9A
:1003B000012005B0F0BDFFF7AFFF2046F9E7FFF7DA
:1003C000ABFF0220F5E74FF0FF30F2E702A805F09F
:1003D000FFFF05460028F6D0026802A8966805F0DF
:1003E000EBFF3A4601462846B0470346D8E7304679
:1003F000074901AA1BF0E6F8019BD1E7541C02084B
:10040000641C02085C1C0208800300208403002096
:10041000A01C0208022808B50BDDC21E074B53F8CA
:100420002200002143F8221028B10268536898473F
:1004300008BD002008BD4FF0FF3008BD8403002038
:100440000228F8B50D46174628DC1D490A68002A1F
:100450002DD00FB32C46EE1914F8011B1948ED43AB
:10046000AB1903F0010505F067FFB44214D035B1B4
:1004700014F8011B134805F05FFFB4420CD0254669
:10048000104815F8011B05F057FF61780D486C1CEA
:1004900005F052FFB442F2D13846F8BD03380A4B9A
:1004A00053F8200040B103681B689847F8BDFFF778
:1004B00033FF002FCED1EFE74FF0FF30F8BD00BF84
:1004C000000B0020A821002084030020022810B582
:1004D0000C4609DC0D4A106888B10D4805F020FF74
:1004E00001212070084610BD03380A4B53F8200044
:1004F00040B103689B6898470146084610BDFFF766
:100500000BFFEAE74FF0FF31ECE700BF000B0020E4
:10051000A821002084030020022808B508DD033844
:10052000064B53F8200028B10168CA68904708BDFF
:10053000012008BD4FF0FF3008BD00BF840300203C
:10054000022808B508DD0338064B53F8200028B10F
:1005500003681B69984708BD002008BD4FF0FF30B5
:1005600008BD00BF84030020022808B504D84FF45A
:1005700000504860002008BD19F0D4F90923036039
:100580004FF0FF3008BD00BF30B583B0014668466C
:1005900005F0E8FE684605F01BFF044648B1036815
:1005A0006846DD6805F008FF01462046A84703B00D
:1005B00030BD4FF0FF30FAE708B5012006F01AFA17
:1005C000704700BF08B500F0ADFCFFF7F9FFBDE8CC
:1005D000084002F09DBF00BF084A13681818EFF3E7
:1005E0000881884202D2106018467047044B0C22E2
:1005F0001A604FF0FF331846704700BF9C0100207F
:10060000FC2100204FF46D43CEF200034FF6FF02B1
:10061000D9680A4042F0BF6242F4003100F007009E
:1006200041EA0022DA60704708B572B6962006F0FB
:1006300077FA962006F074FAF8E700BF704700BF1B
:10064000036801201A6A00FA01F122EA01021A6223
:10065000186A0022C4F2010201439342196205D0D4
:100660001A6842F00101196000207047596C41F48A
:1006700000405864F4E700BF0023C4F2010398422D
:1006800030B402683DD0B0F1804F2CD04FF480647C
:10069000C4F20004A04226D04FF40063C4F2000369
:1006A000984220D04FF44064C4F20004A0421AD013
:1006B0004FF48043C4F20103984218D04FF48844A9
:1006C000C4F20104A04212D04FF49043C4F20103DB
:1006D00098420CD08C6809680260C4628162012271
:1006E000426130BC70474D6822F070022A43CD68E9
:1006F0008C680B6822F4407129430160C4628362F4
:10070000EDE74C68CB6822F07002144324F4407487
:10071000234303608A68C2620B68836209690163CC
:10072000DDE700BF10B5044690B190F8393063B1F1
:100730002146022251F8040B84F83920FFF79CFF70
:10074000012084F83900002010BDFFF777FFEFE7A4
:10075000012010BD4FF46D42CEF20002F0B4936858
:100760009468B4F1006F1A4604D0103042F820109B
:10077000F0BC70474FF6FC7403F5CC77C1F6FF74FC
:100780001A46251D52F8046B66605C68131D6C6088
:100790002C1DBB42F4D14FF46D43CEF200034FF059
:1007A00000529A60E1E700BF0649074A074B9A42A8
:1007B000BEBF51F8040B42F8040BF8E70448804729
:1007C00004480047185902089801002068030020D7
:1007D00095140008E5010008FEE7FEE7FEE7FEE7E6
:1007E000FEE7FEE7FEE7FEE7FEE7FEE7F8B5036893
:1007F0000446D80744D54FF46052C4F2020291680F
:1008000001F00C00042800F03781916801F00C0021
:10081000082800F02D8143F60203C4F202030025EC
:100820001D7000F057FD4FF460550646C4F20205F6
:1008300006E000F04FFD831BB3F5FA7F00F2F28073
:1008400029688B03F5D443F602062079C4F2020628
:100850004FF4605530706268012A00F0978100F013
:1008600039FDC4F20205064606E000F033FD811BA7
:10087000B1F5FA7F00F2D6802B689903F5D423688E
:100880009A073BD54FF46050C4F20200816811F022
:100890000C0F00F0CD80826802F00C01082900F0F6
:1008A000C380E668002E00F00B810025C4F24725C6
:1008B0000120286000F00EFD4FF460550646C4F29A
:1008C000020505E000F006FD831B642B00F2AA8000
:1008D0002A684FF460539207C4F20203F2D51968F4
:1008E000F82090FAA0F2B2FA82F02269C0B202FABD
:1008F00000F221F0F8010A431A602368190726D490
:10090000580741D4A16901B34FF46056C4F20206FE
:10091000B26802F00C00082800F0BA804FF06005C1
:10092000C4F247254FF0000302292B6000F0DE805F
:1009300000F0D0FC3446054604E000F0CBFC421B3E
:10094000642A6FD821688B01F7D40020F8BD66694E
:10095000002E00F09F804FF46865C4F24725012007
:10096000286000F0B7FC4FF460550646C4F202055B
:1009700004E000F0AFFC801B642853D86B6F9A072B
:10098000F7D523685807BDD54FF46056C4F2020668
:100990004FF4E045326CC4F2000542F080513164FE
:1009A000286840F480732B6000F094FC064604E055
:1009B00000F090FC811B642934D82A68D105F7D552
:1009C00043F67005C4F2020500262E7000F082FC8A
:1009D0004FF460550646C4F2020505E000F07AFCCB
:1009E000831BB3F5167F1DD8296F8A07F6D443F60B
:1009F0007000237AC4F202004FF460550370A268BD
:100A0000012A00F0D48000F065FCC4F2020506461D
:100A1000296F88077FF576AF00F05CFC801BB0F58E
:100A2000167FF5D90320F8BD406840023FF539AF85
:100A30004FF46052C4F202021068810702D5E168E7
:100A4000012925D14FF46052C4F20202F825106842
:100A500095FAA5F1B1FA81F52169EDB201FA05F136
:100A600020F0F8000143116019077FF549AF6EE7E8
:100A7000526851027FF5CFAE4FF46051C4F20201CB
:100A8000086882037FF5FCAE6268012A3FF4F8AE85
:100A90000120F8BD4FF46863C4F247234FF460555A
:100AA0001E6000F017FCC4F20205064604E000F0E8
:100AB00011FC811B6429B5D86A6F9307F7D460E7EE
:100AC0000023C4F247234FF460551E6000F002FC7F
:100AD000C4F20205064604E000F0FCFB811B642919
:100AE000A0D82A689007F7D4236807E700F0F2FB44
:100AF000074604E000F0EEFBC01B642892D8306883
:100B00004FF460558101C4F20205F3D447F6C07E6C
:100B10009EFAAEF7B7FA87FE4FF4403696FAA6F380
:100B2000B3FA83F34FF0706191FAA1F2B2FA82F254
:100B3000D4F820C0E669A16A676AE06A4CEA060652
:100B40005FFA8EF44908DBB246F0005607FA04F467
:100B50000139344301FA03F1D2B2602300FA02F002
:100B60002143C4F2472341EA000401226C601A6069
:100B700000F0B0FB044605E000F0ACFB011B64296B
:100B80003FF650AF2B689A01F6D5DEE600F0A2FBE7
:100B9000C4F20205064606E000F09CFB821BB2F59B
:100BA000FA7F3FF63FAF28688003F5D567E600F08F
:100BB00091FBC4F2020506462B6F9B073FF5A2AEE0
:100BC00000F088FB821BB2F5167FF5D92AE700BF3B
:100BD0004FF47053C4F202032DE9F0411A680C4639
:100BE00002F00F01A142054609D2E2B21A7019685B
:100BF00001F00F03A34269D00120BDE8F081036832
:100C0000980709D54FF46052C4F20202A9689068AF
:100C100020F0F00001439160D9072CD56B684FF4A8
:100C20006052C4F20202012B106800F09F80022B78
:100C300000F0A0808107DFD54FF46057C4F20207AF
:100C400041F28838BE6826F003010B43BB6000F018
:100C500041FB6A68012A064672D0022A7BD0B86836
:100C600010F00C0F07D000F035FB811B4145F6D981
:100C70000320BDE8F0814FF47050C4F20200E2B2EC
:100C80000270016801F00F03A342B5D12B685A0727
:100C900009D54FF46052C4F20202E968906820F46A
:100CA000E050014391601B070AD54FF46053C4F232
:100CB000020328699A6822F4604141EAC000986002
:100CC0000F2000F087FD0020BDE8F0810368990740
:100CD00009D54FF46052C4F202028168906820F096
:100CE000F00001439160DA07D1D56B684FF4605290
:100CF000C4F20202012B10685AD0022B55D0820791
:100D00007FF57AAF4FF46056C4F20206B46824F05F
:100D1000030747EA0301B16000F0DCFA6B68012BBE
:100D2000044641F2883729D0022B32D0B26812F043
:100D30000C0FABD000F0CEFA001BB842F6D997E703
:100D4000B96801F00C03042B95D000F0C3FA801BA6
:100D50004045F5D98CE7BB6803F00C02082A8AD01D
:100D600000F0B8FA801B4045F5D981E782033FF5D2
:100D700063AF41E780013FF55FAF3DE7B06800F04A
:100D80000C01042982D000F0A5FA031BBB42F5D95F
:100D90006EE7B16801F00C03082B3FF477AF00F069
:100DA00099FA021BBA42F4D962E78101AAD423E777
:100DB0008003A7D420E700BF4FF46053C4F20203BE
:100DC00010B49A6802F00C00042807D008280AD052
:100DD0004FF41050C0F2F40010BC70474FF4905024
:100DE000C0F27A00F8E75C68596804F03F044FF4F9
:100DF000800292FAA2F0B0FA80F201F48001D0B23F
:100E000031FA00F2596847F6C07393FAA3F2B2FAC6
:100E100082F047F6C07320D14FF410520B40C0F25D
:100E2000F402C1B223FA01F3B2FBF4F000FB03F1C8
:100E30004FF46053C4F202034FF440305A6890FA02
:100E4000A0F3B3FA83F002F44032C3B222FA03F003
:100E5000421C5300B1FBF3F0BEE74FF490520B403D
:100E6000C0B2C0F27A0223FA00F3B2FBF4F101FB44
:100E700003F1DDE708B5FFF79FFF4FF46053C4F2BD
:100E80000203F0219B6891FAA1F2B2FA82F141F6D5
:100E9000B04203F0F003C9B223FA01F1C0F6020236
:100EA00040F2B013525CC2F2000320FA02F0186064
:100EB00008BD00BF08B5FFF7DDFF4FF46053C4F273
:100EC00002034FF4E052996892FAA2F3B3FA83F264
:100ED00041F6B043D2B201F4E05121FA02F1C0F67A
:100EE00002035B5C20FA03F008BD00BF08B5FFF702
:100EF000C1FF4FF46053C4F202034FF4604299689B
:100F000092FAA2F3B3FA83F241F6B043D2B201F4FB
:100F1000604121FA02F1C0F602035B5C20FA03F0A3
:100F200008BD00BF08B500F0DBF9BDE8084000F0DF
:100F3000ADB900BF704700BF2DE9F04180460028E1
:100F400046D090F85130002B3FD0D8F80830D8F870
:100F50000470D8F80C60D8F81050D8F81440D8F8BD
:100F60001C10D8F82020D8F80000D8F818C01F436B
:100F70003E4335432C43022388F851302143D8F8AF
:100F8000283005680A4342EA03014FEA1C44D8F8B6
:100F900024200CF4007C41EA0C0304F00404D8F88B
:100FA0002C10144325F04005056003604460016186
:100FB000C269002322F400610122C16188F8523025
:100FC000184688F85120BDE8F081FFF7B3FFBCE771
:100FD0000120BDE8F08100BF2DE9F00F00238AB0A9
:100FE0009946C4F20209CDF804904FF400674FF41B
:100FF00040684FF48059C4F20207C4F20208C4F2F8
:1010000002094FF4605C4FF480620397CDF81080C2
:10101000CDF814904FF4A0544FF4C0574FF4E0585B
:101020004FF40059E3464FF47055C4F2020CC4F279
:101030000202C4F20204C4F20207C4F20208C4F2BB
:1010400002090E680292C4F2010BC4F20105069473
:101050000797CDF82080CDF82490CDF800C003E0AC
:101060000133102B00F0B380012202FA03F202EAEE
:1010700006049442F4D14A68022A00F09080122AB1
:1010800000F08D804FEA430C4FF00308D0F8009039
:1010900008FA0CF76FEA070802F0030707FA0CF7E3
:1010A00008EA090949EA0709571E012FC0F800900C
:1010B0005FD9112A5DD0122A5BD08F68D0F80C90CE
:1010C00007FA0CFC08EA090848EA0C0712F0805FEE
:1010D000C760C5D0DDF80080D8F844909F0849F477
:1010E000804C0237C8F844C003F003085BF827902F
:1010F0004FEA880C4FF00F0808FA0CF829EA0808A4
:10110000DDF80490484566D0DDF80890484500F0C9
:101110009380DDF80C90484500F09380DDF8109046
:10112000484500F09380DDF81490484500F0938026
:10113000DDF81890484500F09880DDF81C9048458F
:1011400000F09880DDF82090484500F08980DDF8B7
:101150002490484500F093804FF41059C4F20209DE
:1011600048450CBF4FF009094FF00A0909FA0CFC79
:1011700033E0D0F808A0CF6808EA0A0A07FA0CF9A9
:101180004AEA09078760D0F80490C2F3001729EAF9
:10119000040907FA03F749EA070747608DE74FEAB2
:1011A000D30A0AF1080C03F007074FEA870850F842
:1011B0002C900F694FF00F0A0AFA08FA29EA0A0977
:1011C00007FA08F849EA080740F82C705AE70AB00D
:1011D000BDE8F00F70474FF0000C4CEA08094BF8DF
:1011E0002790D5F800C0E74307EA0C0C12F4803FC3
:1011F00018BF4CEA040CC5F800C0D5F804C012F4BE
:10120000003F07EA0C0C18BF4CEA040CC5F804C0F8
:10121000D5F808C012F4801F07EA0C0C18BF4CEA7E
:10122000040CC5F808C0D5F80CC0920207EA0C07F8
:1012300048BF2743EF6013E74FF0010909FA0CFCA0
:10124000CBE74FF0020909FA0CFCC6E74FF003099F
:1012500009FA0CFCC1E74FF0040909FA0CFCBCE7E1
:101260004FF0070909FA0CFCB7E74FF0050909FA36
:101270000CFCB2E74FF0060909FA0CFCADE74FF0A1
:10128000080909FA0CFCA8E7704700BF08B54FF43D
:101290007053C4F2020303201A6842F4007119600B
:1012A0001A6842F4806119601A6842F4807119600A
:1012B000FFF7A8F90F2000F08DFAFFF7E5FF0020F7
:1012C00008BD00BF40F28443C2F200031A68501CFC
:1012D0001860704740F28443C2F2000318687047F8
:1012E0004FF46053C4F202039A6802F00C00042821
:1012F00013D0082816D04FF41052C0F2F4024FF465
:101300006053C4F2020319499868C0F30313C85C20
:10131000174B22FA00F21A6070474FF49052C0F255
:101320007A02ECE75868596810F4800F586801F0A9
:101330003F0214BF4FF490534FF41053C0F3881181
:101340004FF4605014BFC0F27A03C0F2F403C4F249
:101350000200B3FBF2F303FB01F24168C1F3014366
:10136000581C4100B2FBF1F2C9E700BFA001002008
:10137000B00100204FF46052C4F2020210B5116CAB
:101380004FF4E04341F08054C4F2000314641A683F
:1013900092B022F4404141F4004401221C600692C4
:1013A000A0B9079204234FF480010E93C822109332
:1013B0000224092306A811930C940D910F92FFF7B4
:1013C00015FA034628B1002012B010BD0520079081
:1013D000E8E70F220321019201A84FF48052029402
:1013E000039304920593FFF7F3FBD0F1010038BF9C
:1013F0000020E9E74FF46052C4F202024FF4E043E8
:10140000116C70B5C4F2000341F0805010641C6888
:1014100024F4404592B045F400461E60012210239A
:101420000821002409920A930E910423C82209215D
:101430000326022506A81093069607940C950D9492
:101440000F921191FFF7D2F9034610B1204612B066
:1014500070BD0F223146019201A84FF480520295CF
:10146000039304920593FFF7B3FB011B48424841E5
:10147000EDE700BF08B50120FFF77CFF00B108BD14
:10148000FFF778FF0028FAD1FFF7B4FF0028F6D164
:10149000FEE700BF38B54FF46D43CEF200034FF4C2
:1014A0006054D3F88820C4F2020442F47000C3F8F8
:1014B00088002168002041F001052560A0602168B6
:1014C00043F2100221F0847525F48031C2F200420B
:1014D00021606260256840F2B01225F48025C2F2D6
:1014E000000225604FF41051E0604FF00060C0F240
:1014F000F40198601160FFF7C9FEFFF7BBFF236A94
:1015000043F008022262216A21F00800206238BDFF
:101510002DE9F0410568C7682A690669044622F486
:10152000405E4EEA0701E36980682961EF686269FD
:10153000064346EA020127F4164020F00C0719433F
:101540003943E9606E69A06926F4407242EA0001FD
:10155000B3F5004F4FF480536961C4F2010341D0E9
:101560009D4200F0B7804FF4A057C4F20107BD427E
:1015700000F0B080FFF79EFC666800EB800202EB93
:101580008200B10048F21F56B0FBF1F3C5F2EB1632
:10159000A6FB03277A091701FFF78CFC616800EBB3
:1015A00080008B0000EB8002B2FBF3F8FFF782FCB7
:1015B000616800EB800000EB80028B00B2FBF3F16E
:1015C000A6FB01025309642000FB138C4FEA0C1E9A
:1015D0000EF13208A6FB0816C6F343163743AF6078
:1015E000BDE8F0819D423DD04FF4A057C4F2010701
:1015F000BD4237D0FFF75EFC616800EB800202EB72
:1016000082004B0048F21F56B0FBF3F7C5F2EB1611
:10161000A6FB07014A091701FFF74CFC636800EBC2
:1016200080005A0000EB8001B1FBF2F8FFF742FCAA
:10163000636800EB800000EB80015A00B1FBF2F31D
:10164000A6FB03106422410902FB118C4FEA0C181F
:1016500008F13208A6FB0826C6F343163743AF60ED
:10166000BDE8F081FFF742FC676800EB800379007A
:1016700003EB830048F21F56B0FBF1F2C5F2EB1604
:10168000A6FB02177B091F01FFF730FC616800EB26
:1016900080004B0000EB8002B2FBF3F8FFF726FC62
:1016A000616800EB800000EB80024B00B2FBF3F1BD
:1016B000A6FB01204309642202FB138C4FEA0C189D
:1016C00008F13208A6FB0836C6F343163743AF606D
:1016D000BDE8F081FFF70AFC666800EB800707EBC6
:1016E0008701B20048F21F56B1FBF2F3C5F2EB16C8
:1016F000A6FB03304709FFF7F9FB616800EB8002A6
:101700008B0002EB8200B0FBF3F8FFF7EFFB6168A0
:1017100000EB800202EB82008B00B0FBF3F1A6FB32
:101720000102500964233F0103FB108C4EE700BF08
:10173000704700BF10B5044628B390F83930FBB1AC
:101740002068022284F83920C16821F40053C36064
:101750002046FFF7DDFE2068026922F49041016116
:10176000436923F02A024261C168002341F4005218
:101770000121C26084F83A30184684F8391010BD4F
:10178000FFF7D6FFDCE7012010BD00BF70B50F4C9E
:101790002368DA68910715D4D868420709D50C4E3A
:1017A0006FF0040119615D6A3268AB1AB3F57A7F94
:1017B00000D270BDFFF786FD2068356005F57A75AB
:1017C000856370BD05F0C0F92368E5E7302100208E
:1017D0008804002038B54FF46053C4F2020342F28B
:1017E00030141A6C42F008001864196A41F00805B8
:1017F0001D621A6A22F008001862FFF771FD40F2BC
:10180000B013C2F200034DF683611D68C4F21B31B0
:10181000A1FB0512C2F20004900C4FF440630025B6
:101820004FF0FF32411EC4F200032046E260236005
:1018300061602561A5606561FEF774FF41F28D71FD
:101840003220C0F60001FEF785FF4FF46140CEF272
:1018500000004FF48023436029462046FEF7F0FE47
:1018600004212046FEF7ECFE2368596A01F57A72DE
:101870009A63D86840F28842C2F2000240F0040045
:10188000D8601160284638BD704700BFF8B50446DF
:1018900000286BD090F83530002B54D002222068FD
:1018A00084F83520016821F001050560FFF702FB8F
:1018B0004DF68366C4F21B36A6FB002748F2A065EE
:1018C00062682368C0F20105B90CAA42596022D8A7
:1018D0005700B0FBF7F216050131350D1962032DE3
:1018E00098BF0422E7682669A5696169E069DA6141
:1018F000226A294302433E431A609E60D9601868F9
:1019000040F0010119600022012384F836201046BE
:1019100084F83530F8BD4FF4967644F6D35706FB7D
:1019200001F1C1F26207A7FB0165A909A7684E1C76
:101930001E625FB902EB4206B0FBF6F21505280DF8
:1019400088B90122CEE7FFF79FFFA7E702EB8202EB
:1019500002EB8205B0FBF5F001050F0D002FF0D072
:1019600040F44042BEE742F40042BBE70120F8BD2C
:101970002023C4F20E2301221A607047704700BF73
:101980000368D3F828C01B68C1F804C02DE9F00132
:10199000C3F30620C3F3054403F48008E7B2C6B2DC
:1019A00003F07F054FEA18480F704E708D7081F874
:1019B0000880BAB93F0936092D0907EB870204F000
:1019C0000F0406EB860600F00F0005EB850503F01B
:1019D0000F0304EB420700EB460603EB45050F70CF
:1019E0004E708D700020BDE8F001704703685B68A1
:1019F000F0B4C3F30420C3F30744E6B2C7B203F064
:101A00003F05C3F3423CCE704F708D7081F800C02B
:101A1000BAB93F09BA002D093609D71906EB86066F
:101A200004F00F0400F00F0005EB850203F00F0334
:101A300004EB460600EB470703EB4205CE704F7000
:101A40008D700020F0BC704738B50368DA68044632
:101A500022F0A000D860FFF73DFC054605E0FFF747
:101A600039FC421BB2F57A7F05D82168CB689B060A
:101A7000F5D5002038BD032038BD00BF38B5036858
:101A8000DA685106044601D5002038BD4FF0FF301A
:101A9000D860FFF71FFC05462168CB685A06F3D4CF
:101AA000FFF718FC421BB2F57A7FF5D9032038BD49
:101AB000F8B50446002841D0437F002B3BD0216875
:101AC00002226277CA2353224B6220464A62FFF702
:101AD000D5FF2368002828D1996827696669E568D9
:101AE00021F4E00C2CF040029A609A68616842EAA6
:101AF000010E4EEA07073E439E601D611D69A26804
:101B000045EA02411961DD6825F08002DA60196C4E
:101B100021F480251D641A6CA56942EA0501FF22A3
:101B200019645A6201236377F8BDFF2004215862CB
:101B300001206177F8BDFFF721FFC0E70120F8BD64
:101B4000037F012B70B5044600F09E800120022522
:101B500020776577002A2BD04D78CA788B78097862
:101B6000280240EA02451D4345EA413521685323D6
:101B7000CA224A6220464B62FFF780FF2368002892
:101B800040F0848025F07F4525F0C0005860D9687A
:101B900021F08002DA609D6815F0200500F0848055
:101BA0000022FF200121586210466177227770BD24
:101BB0004B7803F01002D0B200286FD1CA7800250C
:101BC000092A1AD90A3A4CF6CD40D2B2CCF6CC400A
:101BD000A0FB0250C0F3C0050120092A0BD925B192
:101BE0000A3AD2B20220092A05D9143A02F0FF02B9
:101BF0000230092AF9D80501EDB22A431204092B53
:101C000060D90A3B4CF6CD40DBB2CCF6CC40A0FB11
:101C10000350C0F3C0050120092B0BD925B10A3BA5
:101C2000DBB20220092B05D9143B03F0FF0302307D
:101C3000092BF9D80501EDB288782B431B0209283E
:101C400042D90A384CF6CD46C0B2CCF6CC46A6FBFB
:101C5000005601250928C6F3C0060BD926B10A385B
:101C6000C0B20225092805D9143800F0FF0002355A
:101C70000928F9D82D01EDB2097842EA413213431F
:101C8000284343EA000571E7022070BDFF200421CC
:101C90000022586201206177227770BD03F0EF03C4
:101CA0000A33DBB24B7089E72046FFF7CDFE23688D
:101CB00000283FF475AFFF225A62042301206377A6
:101CC000257770BD0025B7E70025D5E7F8B5037F78
:101CD000012B04460D4600F0B3800120022120773D
:101CE00061772668002A40F09B80B1682B7811F05C
:101CF000400E15BF95F808E085F808E04FEA0E4E53
:101D00002668092B40F2B6800A3B4CF6CD42DBB286
:101D1000CCF6CC42A2FB03010127092BC1F3C00082
:101D20000BD920B10A3BDBB20227092B05D9143BA2
:101D300003F0FF030237092BF9D83A01D7B26A78CA
:101D400047EA03010B04092A40F296800A3A4CF64E
:101D5000CD40D2B2CCF6CC40A0FB02710120092AC2
:101D6000C1F3C0070BD927B10A3AD2B20220092A1F
:101D700005D9143A02F0FF020230092AF9D801010C
:101D8000CFB2A87817433A02092877D90A384CF617
:101D9000CD47C0B2CCF6CC47A7FB0071C1F3C0075A
:101DA000012109280BD927B10A38C0B2022109281C
:101DB00005D9143800F0FF0002310928F9D80F01C5
:101DC000F9B243EA0E031A43084342EA00075323D9
:101DD000CA21716220467362FFF750FE2368002813
:101DE00030D107F07F3727F0FE47EA682D691F6082
:101DF000986820F480219960986802432A439A6089
:101E0000DD6825F08001D960986810F0200524D0A5
:101E1000FF21596200220123104663772277F8BD23
:101E2000B76817F0400115D12972266868782F78B5
:101E3000AB78020242EA0740184340EA0107C6E7CE
:101E40000220F8BDFF21596200220423012063779C
:101E50002277F8BD2A7A1104E8E72046FFF7F4FD5F
:101E600023680028D4D0FF20042258620120627722
:101E70002577F8BD002762E7002782E70021A0E769
:101E80001FB58DF80D3000238DF80C20009303AAA8
:101E900002230C3004F016FBD0F1010038BF002003
:101EA00005B05DF804FBD3ED007A91ED007A77EE92
:101EB000677A91ED017AC1ED007AD3ED017A77EE80
:101EC000677A91ED027AC1ED017AD3ED027A77EE6D
:101ED000677AC1ED027A7047F0B585B00D460A9C6D
:101EE0008DF80F20012C1F4604DDD3B263F07F0371
:101EF0008DF80F3000F10C0601230093304629467F
:101F00000DF10F0204F0DEFA58B900902946304670
:101F10003A46234604F0EEFAD0F1010038BF002023
:101F200000E0002005B0F0BDF0B587B006270E46F2
:101F3000154600973221282202AB0446FFF7CCFF5A
:101F400038B1009720463C21032204ABFFF7C4FFC1
:101F500008B9002068E09DF809209DF8083094ED4C
:101F6000007A43EA022343F30B1307EE903AF8EEAC
:101F7000E77A9DF80B209DF80A30C7EE877A43EA8E
:101F8000022343F30B139DF80D20C6ED007A07EEF4
:101F9000903A94ED007A9DF80C30F8EEE77A43EA37
:101FA0000223C7EE877A43F30B139DF81020C6ED8A
:101FB000017A07EE903A94ED007A9DF81130F8EE30
:101FC000E77A43EA0223C7EE877A1BB29DF8122014
:101FD000C6ED027A07EE903A94ED017A9DF813303F
:101FE000F8EEE77A43EA0223C7EE877A1BB29DF840
:101FF0001420C5ED007A07EE903A94ED027A9DF830
:102000001530F8EEE77A43EA0223C7EE877A1BB26F
:10201000C5ED017A07EE903A94ED017AF8EEE77A91
:10202000C7EE877AC5ED027A07B0F0BD70B52DED29
:10203000048B064686B00C463C253046694603AA0A
:10204000FFF772FFDDED007A39EE279ADDED017AB8
:1020500078EEA78ADDED027A013D38EE278AECD1D1
:10206000DFED0A7A89EE279AC8EEA78AC8EE277AAA
:10207000B7EE007A77EEC77A84ED009AC4ED018A54
:10208000C4ED027A06B0BDEC048B70BD0000704256
:10209000622938B504460AD064290FD061290E4D53
:1020A0004FF032014FF0230210D100230FE0102334
:1020B00032212322FFF7E4FE084B05E020233221E2
:1020C0002322FFF7DDFE064B236038BD3023FFF7E8
:1020D000D7FE256038BD00BF00007A440000FA44F6
:1020E00000007A45322970B504460BD0332912D04E
:1020F0000E4E0F4D3C2101222023FFF7C1FE6660EA
:10210000A56070BD40233C210122FFF7B9FE094BB9
:102110006360094B07E060233C210122FFF7B0FE1A
:10212000064B6360064BA36070BD00BF008089440E
:102130000000754400C0554400003E440080274420
:102140000000164438B500F10C050446284604F09A
:102150008BF928460F4904F09BF92022572320468B
:102160003221FFF78DFE20466121FFF791FF00220B
:10217000142320463C21FFF783FE20463121FFF740
:10218000B1FF20463C2102220023FFF779FE2046C2
:1021900038BD00BFA08601004FF0FF30704700201F
:1021A00070470020704700F51270D0E900017047B9
:1021B0000131002370B5891A054618468B420DD0AF
:1021C0009C18A5EBD40604F00704F67B46FA04F449
:1021D00004F001049C4020430133EFE770BD000090
:1021E00038B590F90030013304460D4604D1064855
:1021F0000649352204F0A4FB63680DB1E26800E0F3
:1022000022699BB2138038BD001D0208181D020808
:102210000FB407B5064B04AA1B6852F8041BD86814
:1022200001921BF02DFC03B05DF804EB04B0704785
:102230009C02002010B5054B0360054BC0F85032DE
:10224000044601F0ADFB204610BD00BFC81C0208CB
:102250008027020810B50446FFF7ECFF204605F082
:10226000D5FB204610BD0000F7B504460D46099980
:102270001E46174601F050FC0F4B23604FF0FF3312
:1022800000932946334604F520753A4604F5147048
:1022900004F058F914222846002118F0A7FA28461D
:1022A0009DF9201004F0A2FB28460121FFF798FFBA
:1022B000204603B0F0BD00BFC81C0208F8B50446B4
:1022C00000F5207604F514740F46304600211546BB
:1022D000FFF786FF47F04001204604F07DF92916FC
:1022E000204604F079F92914204604F075F92912E2
:1022F000204604F071F92946204604F06DF9204685
:10230000952104F069F941F288352046FF2104F057
:1023100063F90306074609D430460121FFF760FF41
:102320002046FF2104F058F93846F8BD013DECD1B4
:1023300030460121FFF754FF2046FF2104F04CF9FD
:102340004FF0FF30F8BD000038B5054641F2883443
:10235000372100222846FFF7B1FF28462921002215
:10236000FFF7ACFF28B94FF40073C5F89432012091
:1023700038BD013CECD10248FFF74AFF204638BD8A
:10238000941D0208F8B5044600F5207604F514748F
:102390000F46304600211546FFF722FF47F0400167
:1023A000204604F019F92916204604F015F92914DD
:1023B000204604F011F92912204604F00DF92946AF
:1023C000204604F009F92046952104F005F941F270
:1023D00088352046FF2104F0FFF803060BD5013DA8
:1023E000F7D130460121FFF7FBFE2046FF2104F024
:1023F000F3F84FF0FF30F8BDF8B5044600F520754E
:1024000004F5147428460021FFF7EAFE7A212046DD
:1024100004F0E2F80021204604F0DEF80021204616
:1024200004F0DAF80021204604F0D6F80021204616
:1024300004F0D2F82046952104F0CEF841F2883617
:102440002046FF2104F0C8F80306074619D42046A9
:10245000FF2104F0C1F82046FF2104F0BDF820461A
:10246000FF2104F0B9F82046FF2104F0B5F8284612
:102470000121FFF7B5FE2046FF2104F0ADF83846F4
:10248000F8BD013EDCD128460121FFF7A9FE204618
:10249000FF2104F0A1F84FF0FF30F8BD38B5044635
:1024A00041F28835322004F03BFB2046FFF7A4FFC1
:1024B000372100222046FFF701FF204629214FF057
:1024C0008042FFF7FBFE38B92046FFF795FF012356
:1024D000C4F89432022038BD013DE3D10248FFF731
:1024E00097FE284638BD00BFB31D0208F7B5044665
:1024F00000F5207604F5147430460021FFF770FED5
:102500004821204604F068F80021204604F064F8D1
:102510000021204604F060F80121204604F05CF818
:10252000AA21204604F058F82046872104F054F8E8
:1025300000252046FF2104F04FF803068DF8000027
:1025400015D404272046FF2104F046F802AB2B44A3
:10255000013F03F8080CF5D130460121FFF740FE9A
:102560002046FF2104F038F89DF800000DE0084BEC
:1025700001359D42DDD130460121FFF731FE204675
:10258000FF2104F029F84FF0FF3003B0F0BD00BF89
:10259000404B4C0070B500F51476044617493046A0
:1025A00004F026F804F520700121FFF719FE10252C
:1025B0003046FF2104F010F8013DF9D120462946AC
:1025C0002A46FFF77BFE012801D00D4811E0204686
:1025D000FFF78CFF012804D12046BDE87040FFF7CB
:1025E0005DBF052804D12046BDE87040FFF7ACBEB2
:1025F0000448FFF70DFE002070BD00BFA08601005B
:10260000D21D02080A1E02082DE9F04100F52076CD
:1026100007460D46304600219046FFF7E1FD07F5DD
:1026200014742046FF2103F0D7FFFE28F7D1A844F9
:10263000454520464FF0FF0104D003F0CDFF05F8DB
:10264000010BF5E703F0C8FF2046FF2103F0C4FFAC
:1026500030460121FFF7C4FD2046FF2103F0BCFFF7
:102660000020BDE8F08170B5D0F894320E465A4390
:1026700011210546FFF722FE044630B928463146AF
:102680004FF40072FFF7C0FF00E00124204670BD48
:10269000F8B5044600F520760D463046002104F5D5
:1026A00014741746FFF79CFD2046FE2103F094FFAB
:1026B0002F44BD42204604D015F8011B03F08CFFC7
:1026C000F7E7FF2103F088FFFF21204603F084FF96
:1026D0002046FF2103F080FF00F01F00052809D0ED
:1026E00030460121FFF77CFD2046FF2103F074FFF7
:1026F0000120F8BD2046FF2103F06EFF0028F9D02D
:1027000030460121FFF76CFD2046FF2103F064FFF6
:102710000020F8BD70B5D0F894320E465A43182107
:102720000546FFF7CBFD044630B9284631464FF445
:102730000072FFF7ADFF00E00124204670BD0000ED
:1027400030B5092185B000220446FFF71BFE08B111
:1027500021483AE0204669461022FFF755FF08B1AC
:102760001E4832E068467F217E22FFF721FD58B1E6
:10277000012829D1C4F894023F2168463022FFF78E
:1027800017FD0130800223E04FF40073C4F8943247
:1027900049213E226846FFF70BFD312105462F22D5
:1027A0006846FFF705FD5022044653216846FFF7AF
:1027B000FFFC012303FA00F005FB0002A01C03FA52
:1027C00000F05043400A03E00548FFF721FD0020D8
:1027D000002105B030BD00BF421E0208671E02087E
:1027E0008D1E020838B50446FFF7D4FE2046FFF7D9
:1027F000A7FF04F51273C3E900014FF400722046ED
:102800001021FFF75BFD054620B10648FFF700FDEC
:10281000012504E004F51470034903F0E9FE28469D
:1028200038BD00BFA61E020840420F0010B54FF091
:102830007E54846042600024034AC46004614461A1
:102840000160826110BD00BF6666263F70B52DED48
:10285000088B90ED039AD0ED028AD0ED047A90EDCA
:10286000057A29EE498A67EEE86AA8EEA88A0E463C
:10287000E9EE076AA7EEE78A78EEA8AA36EEA6AADE
:1028800039EE09BA67EE876AA7EE078A27EE6A7AF9
:10289000E8EE896AABEE277A2BEE099A17EE100A5A
:1028A000AAEEA89A76EEA69A16F0C0F9F7EE007A8C
:1028B00079EE677A044617EE900A0D4616F0B6F9DF
:1028C00002460B462046294615F012FE28EE088ADD
:1028D00016F09AFCF0EE487AE9EEA97A80F0004012
:1028E000306017EE900A16F0A1F915F003FE16F00D
:1028F0008BFC07EE900ACAEE277AAAEE0A8A17EE38
:10290000900A16F093F915F047FC16F07DFC80F064
:102910000040706018EE100A16F088F915F0EAFD14
:1029200016F072FC07EE900AC9EEA77A17EE900A2D
:1029300016F07CF915F030FC16F066FCBDEC088B47
:1029400080F00040B06070BD0A4B07EE901AA3EB18
:102950006103F6EE006A07EE103A67EEA66AF7EE3C
:10296000087A67EE666AE6EE877A67EE277A17EEF0
:10297000900A7047DF59375F38B52DED0C8B07EEA5
:10298000902A90ED048AD0ED038A90ED059AD0ED5F
:10299000029A9DED10AA9DED11BADDED12AA139DCC
:1029A00006EE901A27EEC87A06EE103AA8EEE67AFE
:1029B0000446F1EE495AA5EE867AF6EE00DA27EEE5
:1029C0002DCA28EE067AB5EE40AAA9EEA67AF1EE57
:1029D00010FAA5EEA77A67EE2DCA26EE687AA9EE60
:1029E000A77A68EEA77AA9EE267AE9EE867A27EE2C
:1029F0002DDAE8EE667A67EEADDA0AD1B5EE40BAC6
:102A0000F1EE10FA05D1F5EE40AAF1EE10FA00F061
:102A10008A806BEE0B7A2046EAEE0A7AEAEEAA7A10
:102A200017EE901AFFF790FF07EE900A38EE084A6B
:102A30006AEE276A2BEE277A6AEEA73AF1EE007A61
:102A400069EEA71A68EE085A64EE26BA79EE092AEA
:102A5000E1EEA5BA204668EEA74A28EEA86A29EE5C
:102A6000092A26EEE2BAE1EE86BAA4EE82BA69EE4F
:102A7000A91A79EEA9AA61EEA71A28EE275AA1EEA3
:102A8000A8BAB2EE003AAAEEC7BA6AEEA6AA28EE33
:102A9000831AE1EE88AA3BEE64BAE5EE02AAA1EE43
:102AA00006BAE2EEC7AA28EE033A7AEEC5AAA1EE6C
:102AB00025BAE3EE06AA38EEA8AAA4EEA3BAEAEE77
:102AC00047BAE3EE25AA26EECAAA65EEA75A66EE35
:102AD000277AE5EE23AAA7EE89AA6BEE0B7AA5EE7C
:102AE00089AAEBEEAB7AA4EE47AAEAEEAA7AEAEE5E
:102AF0000A7A17EE901AFFF727FF07EE100AD4EDB7
:102B0000017A6BEE87BA2BEE07BA6AEE87AA2AEE35
:102B100007AAF1EE677AA7EEABCAE7EE8BCAA7EE7B
:102B2000AADAE7EE8ADA2046D4ED007AB7EE00AAF8
:102B3000CAEE277AECEEA78AECEE279AADEE278A4A
:102B4000ADEEA79A68EEA87AE9EEA97AE8EE087ADF
:102B5000E9EE097A17EE901AFFF7F6FE07EE900AF3
:102B600069EEA79A68EEA78A28EE278A29EE279AA7
:102B7000D4ED067AC4ED038A84ED048A84ED059AC7
:102B8000C4ED029A95ED007A7AEE676A26EE877AAE
:102B9000A9EEA77A84ED027A95ED016A26EE866A9F
:102BA000A8EEA76A84ED036A95ED026A26EE866AAE
:102BB000A8EE276A84ED046A95ED036A66EE866ADC
:102BC000E9EE276AC4ED056A85ED007AE3686B607B
:102BD0002369AB606369EB60BDEC0C8B38BD30B52D
:102BE0002DED108B8FB0DDED25BADDED26AA9DED24
:102BF00027AA289DF5EE40BAF1EE10FA04460BEE36
:102C0000101A0DEE902A0CEE103A18D1F5EE40AAEB
:102C1000F1EE10FA13D1B5EE40AAF1EE10FA0ED192
:102C20009DED220ADDED230A9DED241A8DED000AAB
:102C3000CDED010A8DED021A0395FFF79DFE94ED8F
:102C4000048A94ED039AD4ED058AD4ED029A6DEED0
:102C5000C87AF1EE686AE9EE4B7AB6EE007AE6EEF3
:102C60008C7A67EE877ACDED057A68EE0C7AE9EE1C
:102C70008B7AE6EEAD7A67EE877ACDED067A6CEE6A
:102C8000497AE9EEAD7AE8EE8B7A27EE87FA69EEBB
:102C90002D7AE9EE8C7AE8EE4B7A9DED22BA67EE5A
:102CA000877AB5EE40BAF1EE10FACDED077A0ED183
:102CB0009DED23BAB5EE40BAF1EE10FA07D19DEDC5
:102CC00024BAB5EE40BAF1EE10FA00F08A819DED1B
:102CD00023BA6BEE0B7A9DED22BAEBEE0B7A20460F
:102CE0009DED24BAEBEE0B7A39EEA9EA17EE901AB5
:102CF000FFF72AFE6AEEAA7A0890EBEEAB7A20463E
:102D000079EE09CAEAEE0A7A29EE09CA17EE901A94
:102D1000FFF71AFE07EE900A6BEEA7BA6AEEA7AAB3
:102D20002EEE2BBA6EEE2AFA8DED0BBA2CEEABBA64
:102D30002AEE27AA8DED0CBA38EEA8BA68EEEF7A23
:102D40008DED0DBA29EEA9BA2EEE0A6A8DED09BAFB
:102D50009DED090ADDED0B0A9DED0C1AEBEE807A74
:102D60006CEEAA5AE6EE087A6CEE8A6AEBEE8C7A82
:102D700029EE89BAE5EE887A8DED0ABAE6EEA87AF0
:102D800028EE08BAB1EE6B7AE7EE0B7A68EEA8DAB5
:102D9000F1EE6A6AE7EE2D7A2AEE807A38EE08DAEA
:102DA000A0EEA87A6DEE0A5AA6EE497A69EE28EAF4
:102DB000A1EE087AA6EE8C7AAAEE8B7AA5EEA87A16
:102DC000A6EEAD7A27EE077AA7EEA77A17EE100ADD
:102DD00015F02CFF15F08EFB16F016FA94ED035A41
:102DE000D4ED045A9DED0B4ADDED094A94ED056AD8
:102DF0009DED0C0A9DED081ADDED220A6FEE85FAB5
:102E0000B1EE4A7AE4EE65FA6DEE2A6AEAEE24FA49
:102E10009DED0A4ADDED234AE0EE06FAF1EE4E2A78
:102E2000E7EE0CFAF6EE001AE6EE86FA74EE046AA5
:102E3000E7EE0BFA3EEEAE7AEDEE286AA2EE887A65
:102E4000E4EEC16AA0EEC17AF0EE6E4AB1EE691A04
:102E5000EAEE2DFAE1EE084A31EECB4A07EE900A8F
:102E600074EE6DDA6FEEA44A29EE089AE7EEAD4AE9
:102E7000204671EECC1A74EEEBBAA1EE289ADDED85
:102E80000A4A9DED080AB0EE6E1AA9EE881A71EE94
:102E9000CB1AE8EE284A6FEEA11A6CEEA68AE7EE8E
:102EA000811AEDEE478A6FEEA44A2FEE854AE7EECF
:102EB000894A6FEEA53A31EECAAAB1EE673AF0EE52
:102EC000441AE3EE061AE3EEEB8A74EEEAAAB0EED9
:102ED000001AE1EEAA8AF7EE001AECEE411A2EEE85
:102EE000268AEBEE411A9DED24BA94ED021AEBEE20
:102EF000401A9DED0DBAABEE078AB1EE000A60EE06
:102F0000459A67EEA54AA9EEA18A6FEE860AE4EE1D
:102F10008A8A3FEEAF2AEFEE814AA0EEAB8A25EE19
:102F2000429AA4EEAA8AA7EE869A77EEA74AA9EE5D
:102F30000A8A2BEE269A25EEC22AA2EE879AF1EE95
:102F4000644A27EE855AA7EE812A64EEA57A60EEE0
:102F5000655AEFEEC17AA5EEA19A6DEE269AA7EE1C
:102F6000AB9AA4EE864AECEE879A75EE200AE3EE61
:102F7000013AA0EEAA9AE4EE2B9A68EE087AA2EE45
:102F80000A9AE3EEAA9AE8EEA87AE5EE0A9AE9EE42
:102F9000097AE9EEA97A17EE901AFFF7D5FC06EE4A
:102FA000900AD4ED017A9DED05BA68EEA68AF1EE9D
:102FB000677AA7EEA8BA28EE268A8DED05BA9DEDB0
:102FC00006BAA7EE88BA29EE269A8DED06BA69EE02
:102FD000A66A9DED07BAA7EEA6BAA7EE89FA8DED0F
:102FE00007BAD4ED007AD4ED029A9DED05BA94EDBE
:102FF000039AD4ED048A94ED058AB7EE00AACAEECE
:10300000277A2046EBEE279A9DED06BAABEE279A7B
:103010009DED07BAEFEE278AABEE278A69EE097AB3
:10302000E9EEA97AE8EEA87AE8EE087A17EE901AA7
:10303000FFF78AFC07EE900A69EEA79A29EE279A15
:1030400068EEA78A28EE278AD4ED067A84ED039AE3
:10305000C4ED048A84ED058AC4ED029A95ED007AE8
:103060007AEE676A26EE877AA9EEA77A84ED027A6D
:1030700095ED016A26EE866AA9EE276A84ED036A59
:1030800095ED026A26EE866AA8EEA76A84ED046AC8
:1030900095ED036A66EE866AE8EE276AC4ED056A76
:1030A00085ED007AE3686B602369AB606369EB6070
:1030B0000FB0BDEC108B30BDD2ED007A91ED007AEF
:1030C00077EE677A91ED017AC1ED007AD2ED017A5F
:1030D00077EE677A91ED027AC1ED017AD2ED027A4C
:1030E00077EE677AC1ED027A70471FB58DF80D3023
:1030F00000238DF80C20009303AA0223043003F070
:10310000E1F9D0F1010038BF002005B05DF804FB03
:10311000F0B585B00D460A9C8DF80F20012C1F4696
:1031200004DDD3B263F07F038DF80F30061D012359
:103130000093304629460DF10F0203F0C3F958B948
:103140000090294630463A46234603F0D3F9D0F1A1
:10315000010038BF002000E0002005B0F0BD30B510
:1031600085B006230C460093D621282202AB0546E3
:10317000FFF7CEFF98B39DF809209DF8083095ED34
:10318000007A43EA02231BB207EE903A9DF80B2027
:103190009DF80A30F8EEE77A43EA022367EE877A71
:1031A0001BB2C4ED007A07EE903A95ED007A9DF8D7
:1031B0000D209DF80C30F8EEE77A43EA022367EE23
:1031C000877A1BB2C4ED017A07EE903A95ED007A4A
:1031D000F8EEE77A012067EE877AC4ED027A05B04F
:1031E00030BD000070B52DED048B064684B00C4652
:1031F0003C25304601A9FFF7B2FFDDED017A39EE3B
:10320000279ADDED027A78EEA78ADDED037A013D9B
:1032100038EE278AEDD1DFED097A89EE279AC8EEDC
:10322000A78AC8EE277A84ED009AC4ED018AC4ED1E
:10323000027A04B0BDEC048B70BD00BF0000704288
:10324000422938B5044609D044290ED00B4DD62169
:1032500023223023FFF749FF256038BD1023D621F4
:103260002322FFF742FF064B05E00023D62123224D
:10327000FFF73BFF034B236038BD00BF295C8F3D48
:10328000295C8F3C295C0F3C38B5051D0446284657
:1032900003F0EAF82846074903F0FAF82022BF2392
:1032A0002046D621FFF721FF20464121FFF7C8FF26
:1032B000204638BDA086010008B5044B53F8200015
:1032C00003681B6A9847C0B208BD00BFF008002021
:1032D00008B5044B53F8200003685B6A9847C0B2F6
:1032E00008BD00BFF00800202DE9F04180460D46E2
:1032F00016461F461446BB199C420ED20A4B53F881
:10330000280001682246D1F828C000232946E0475A
:1033100030B905F500750134EDE70020BDE8F08116
:103320000420BDE8F08100BFF00800202DE9F04145
:1033300080460D4616461F461446BB199C420ED2C7
:103340000A4B53F8280001682246D1F82CC000230C
:103350002946E04730B905F500750134EDE7002056
:10336000BDE8F0810420BDE8F08100BFF008002036
:10337000012938B50C46154610D004D3032918D1BD
:103380000123136013E00E4B53F8200098B103683B
:103390001B6B9847003018BF012038BD084B53F80D
:1033A000200040B103685B6B984730B12860002073
:1033B00038BD042038BD032038BD204638BD00BFCD
:1033C000F0080020014B0360704700BFD01E0208C8
:1033D00010B5034B0360044604F018FB204610BDF3
:1033E000D01E0208074B10B503F1180203604C33DE
:1033F0000446C26503665C3003F0F0F9024B2360BB
:10340000204610BD98270208D01E0208A0F16000D7
:10341000FFF7E8BFA0F15C00FFF7E4BF10B504467A
:10342000FFF7E0FF204604F0F1FA204610BDA0F1BE
:103430006000F3E7A0F15C00F0E74FF0FF30704769
:1034400070470000014B0360704700BFE01E020898
:1034500008B510B103689B699847002008BD002398
:10346000438170474089704741817047014B036039
:10347000704700BFE01E020810B5034B036004460E
:1034800004F0C4FA204610BDE01E020810B5034B3C
:103490000360044604F0BAFA204610BDE01E02089C
:1034A00030B589B000F1280405464FF4807304302C
:1034B00069460694079301F07FFFA0B99DF80900C3
:1034C00090B195F8283063B90DF1090322460DF14A
:1034D000150153F8040B42F8040B8B42F9D11B7809
:1034E0001370204600E0002009B030BD70B50446DE
:1034F000064B44F8043B0D4606460FCD0FC40FCDD6
:103500000FC42B682360304670BD00BF081F02083F
:103510002DE9F047904C88B04FF0804003F006FB57
:103520008E4821688E4A8F4B02F00CFE8E4802F0C6
:103530006BFBA0468D4C8E4E8E4D8B488E4F02F00D
:1035400053FB894802F070FB214632462B468648E1
:1035500002F081FB894803F0D7F9884803F0C0F9ED
:1035600007EE100AF8EEC77A8448C7ED007A03F038
:10357000D5F9206815F05AFB75A3D3E9002315F09F
:10358000A9FB15F041FE8246606815F04FFB70A361
:10359000D3E9002315F09EFB15F036FE8146A068A6
:1035A00015F044FB6AA3D3E9002315F093FB15F053
:1035B0002BFE3268009272680192B26802922A6809
:1035C00003926A680492AA6805926D4A06920346BD
:1035D0004A4651466B48FFF702FB6B496948FFF7C3
:1035E00035F96A4900970A1D0B1F694802F04EFB26
:1035F0002B1D019305F108030293231D04930697E5
:1036000004F10803634F03940593314606F1080360
:10361000321D00955E4802F079FB5D483946012273
:1036200002F004FC3B784C2BA1465B4C13D10123E8
:10363000D8F800105648236002F016FC574803F0F3
:1036400063F9484B4548D8F8001000221A60444AF4
:1036500002F078FD06E0432B04D1434802F0D4FA8F
:103660000023236023684E4C002B46D14B48DFF8E3
:1036700048A103F03BF907EE100AF8EEC77A474875
:10368000CAED007A03F040F9444803F047F9434893
:1036900003F010F9434B9AED007AD3ED007A424AD9
:1036A00083ED007A77EE677A2E4BC2ED007A8DE8D3
:1036B000400203930295CDED047A334B2748D8F8A6
:1036C0000010274A02F0A6FC94F90030013304D11F
:1036D000364837493F2203F033F9A3681D68636811
:1036E0001D4094F90030013304D13048304935226F
:1036F00003F026F955B1236909E094F9003001334C
:1037000004D12A482A49352203F01AF9E368A2882D
:103710001A803978A1F14103012B01D9442902D142
:103720001148FFF78DFD3978A1F16103012B01D913
:10373000642902D11F48FEF7ABFC3978A1F13103AF
:10374000022B02D81B48FEF7CDFC00233B70F1E6AC
:10375000399D52A246DF913F340600209404002098
:10376000281F020860050020A4040020D8050020BE
:1037700044050020980400208C04002054050020FB
:103780000406002018060020D0080020D4080020DD
:10379000380500201406002090040020F8050020C1
:1037A000DC0800204005002050050020001D020814
:1037B000181D0208C00400203C050020AFF3008063
:1037C00073B52A4D2A4C2B4E002328460221032292
:1037D00002F024FF2846284D2849224604F01AF911
:1037E0002E2328460F21172202F049FA22462846A6
:1037F000234904F00FF919211822224802F0E6F9B2
:1038000014252149214A2248FFF710F82A4630465C
:10381000002116F0EBFF30461E4E052103F0E6F8BE
:103820002A463046002116F0E1FF2D21304603F0F4
:103830009FF81948194E03F079F8194803F076F803
:103840001A230093174B01932A4613233046152160
:10385000FEF70AFD30461449224604F0DBF813480F
:1038600002B0BDE8704002F0D3BB00BF6405002089
:1038700098010020DC08002038050020E53300080E
:10388000895C0008A404002000C0C5430000704209
:1038900018060020E405002054050020380600200A
:1038A000F8050020341F0208352200089404002087
:1038B000002070470069704738B50446043001F0B5
:1038C000A5FC05461CB1236820461B6A984728467C
:1038D00038BD000010B5034B03600446FCF7D8FC6C
:1038E000204610BD401F020810B50446FFF7F2FF46
:1038F000204604F08BF8204610BD08B5043001F0D6
:1039000035FC003018BF0120404208BD022A10B526
:10391000044601D1036902E0012A01D1C3681944B8
:10392000201D01F07AFC08B9E06810BD4FF0FF30AF
:1039300010BD07B5043001AB01F09AFA08B901983F
:1039400001E04FF0FF3003B05DF804FB07B5043031
:1039500001AB01F03FFB08B9019801E04FF0FF30E7
:1039600003B05DF804FB000084B038B505AC84E812
:103970000E00074A0546214640F8042B4FF4097211
:1039800016F010FF2846BDE8384004B0704700BF6D
:10399000401F020800207047002070470020704739
:1039A00010B5084B0360084B1A688242044604D1E4
:1039B00000200146186001F0ADF9204602F034FD08
:1039C000204610BD701F0208F008002010B5044604
:1039D000FFF7E6FF204604F019F8204610BD10B5A9
:1039E0008AB001A801F0B6FC48B94FF4947003F016
:1039F000F9FF01A90446FFF779FD204600E0002009
:103A00000AB010BD08B5084601F060FD003018BFCF
:103A10000120404208BD08B500214FF4007290F823
:103A2000400201F017FE003018BF0120404208BDDF
:103A300008B5084601F0ECFC003018BF01204042F8
:103A400008BD000030B50546ADF2A46D0B46144626
:103A500086A8D5F840221F4917F090FDA50705D488
:103A600014F0010F0CBF0122022200E00322A00586
:103A700005D561054CBF42F0080242F0100296A83D
:103A800086A901F057F900BB230703D596A8999999
:103A900001F0C3FB0DF27C4496A94FF40972204655
:103AA00016F080FE4FF40A7003F09CFF0DF5916153
:103AB00005464FF40672684616F074FE94E80E0050
:103AC0002846FFF751FF284600E000200DF2A46DC4
:103AD00030BD00BFA81F020807B501A803F006F813
:103AE00001A816F049FDC36882681B0443EAC2229C
:103AF000436842EA43130268022192FBF1F21A433F
:103B000043690069503B42EA4363013043EA405055
:103B100003B05DF804FB000038B504460D4602F022
:103B200097FC094B2360094B186820B108482946C7
:103B300002F072FF06E0C4F8400204F110011C60BC
:103B400001F0E8F8204638BD701F0208F008002098
:103B5000AF1F02087F2816D931B1FF2812D80A4BAF
:103B6000803833F810007047074A32F8112082423B
:103B70008BB203D001318029F6D10B4603F18000CE
:103B8000C0B2704700207047E41F02080023064AB5
:103B900032F8132032B1904201D00133F7E7034AE3
:103BA00032F81300704700BFC4220208E420020864
:103BB00010B50023934203D0CC5CC4540133F9E721
:103BC00010BD0244904202D000F8011BFAE7704792
:103BD000C1F307238176090C01750912C37641757B
:103BE000704700231A46C15C013301EBC21101EB9F
:103BF00052020B2B02F0FF02F5D1104670472DE95F
:103C0000F041C56A8D4204460E4602D10020BDE84F
:103C1000F081037913B9002EF8D01FE000F13008CD
:103C2000414640782A460123FFF780FB10B101206E
:103C3000BDE8F081E269236A207113449D42EAD213
:103C4000E778012FE7D9E36960781D4441462A46A9
:103C50000123013FFFF76AFBFFB2F2E7607804F14E
:103C6000300132460123FFF73FFB0028DFD1E66237
:103C7000BDE8F08108B5036873B11A7862B1D988DC
:103C80008288914208D15878FFF722FB10F0010F8B
:103C90000CBF0020032008BD092008BDF8B503694A
:103CA0000C4601F10902002B43D043691E7B00251D
:103CB000595D20290FD0052908BFE521370705D513
:103CC000A1F14107192F9CBF2031C9B20135082D40
:103CD00002F8011BECD1197A202913D02E21117082
:103CE00008250132595D20290CD0F70605D5A1F130
:103CF0004107192F9CBF2031C9B201350B2D02F8A5
:103D0000011BEFD1D97A2172997FDD7F090441EA45
:103D100005611D7F29435D7F41EA052121605D7EAC
:103D2000197E41EA0521A180D97D9B7D43EA0123CB
:103D3000E38000251570A669E6B1E369D3B1036994
:103D40000BB9002514E0028C4FF6FF739A42F8D0AD
:103D5000C76937F8150058B10021FFF7FBFE0028AE
:103D6000EFD0E369013B9D42EBD270550135F0E79E
:103D700000237355F8BD70B500210446FFF73FFFDF
:103D80000546002D51D12378032B46D16379002BB2
:103D900043D004F13006304629464FF40072E56204
:103DA000FFF70FFF552384F82E32AA2384F82F3211
:103DB000522384F8303084F83130612384F8323073
:103DC00084F81732236984F81832412284F83320AA
:103DD00084F81622C3F3072284F819221A0C1B0E4A
:103DE00084F81B32E36884F81A22C3F30722722195
:103DF00084F81C3284F81D221A0C1B0E84F814124D
:103E000084F8151284F81E2284F81F3260786269E3
:103E100031460123FFF78AFA6571002160780A466E
:103E2000FFF7A6FA003018BF012070BDCA7E8B7E56
:103E3000032843EA022305D1487D0A7D42EA002295
:103E400043EA02431846704710B504460A464078D4
:103E500004F130010123FFF747FA80BB94F82E32BA
:103E600094F82F2243EA0222174B12B29A4228D129
:103E700094F8682094F86930120442EA036294F8D6
:103E800066301A4394F8673042EA03220F4B22F05F
:103E90007F429A4216D094F8840094F8852000045A
:103EA00040EA026094F88220104394F8832040EAAC
:103EB000022020F07F40C01A18BF012010BD03204F
:103EC00010BD022010BD00BF55AAFFFF464154009F
:103ED0002DE9F041154602681378303B092B05D8CF
:103EE00054783A2C02D10232026000E00023002212
:103EF0000A60002B40F03681B34B1C68002C00F0A8
:103F000034810C60237873B16078FFF7E1F9C6075C
:103F100009D4002D00F02C8110F0040F0CBF0020FC
:103F20000A20BDE8F081002020706070FFF7C4F91E
:103F3000C10700F1208115B1420700F11F81204621
:103F40000021FFF781FF012818D194F8F23113B94D
:103F50000D20BDE8F08194F8F86194F8F931360449
:103F600046EA036694F8F6311E4394F8F73146EAC0
:103F7000032620463146FFF767FF00E000260328AE
:103F800000F0FF800028E3D194F83C2094F83B3007
:103F900043EA0223B3F5007FDAD194F8470094F89E
:103FA000463053EA00200DD194F8560094F857306B
:103FB000000440EA036094F85430184394F85530F4
:103FC00040EA032094F84050E0616B1E012BE5703D
:103FD000BED894F83D10A1700029B9D04B1E0B42F9
:103FE000B6D194F8413094F8422043EA02221307F4
:103FF0002281ADD194F8447094F8433053EA0723FA
:104000000DD194F8523094F853701B0443EA0763BF
:1040100094F850703B4394F8517043EA072394F8A6
:104020003F8094F83E7057EA082891D005FB00FCC9
:1040300008EB12176744BB428AD3DB1BB3FBF1F3D7
:10404000002B85D040F6F5718B4206D94FF6F575F9
:10405000AB428CBF0325022500E001250233374423
:1040600006EB0801032DA361A762216213D1002A88
:104070007FF46EAF94F85E2094F85F10120442EA69
:10408000016294F85C100A4394F85D1042EA012240
:1040900062629B0010E0002A3FF45AAF022D4FEA03
:1040A000430218BFD218614418BF03F001036162D4
:1040B0000CBF134603EB520303F2FF13B0EB532F75
:1040C000FFF446AF4FF0FF332361032D4FF00003A1
:1040D000E3603BD1637194F8612094F860306078BC
:1040E00043EA02223244626104F130010123FFF706
:1040F000FBF858BB94F82E3294F82F2243EA0222A0
:10410000324B12B29A4221D194F8322094F83330D3
:10411000120442EA036294F830301A4394F83130C2
:1041200042EA03222A4B9A4210D194F8162294F8BC
:104130001732120442EA036294F814321A4394F8D4
:10414000153242EA0322234B9A421DD0224A25709F
:10415000138801339BB200201380E380E06220715A
:10416000BDE8F0810B20BDE8F0810C20BDE8F081B6
:104170002846BDE8F0810320BDE8F0810A20BDE8B3
:10418000F0810120BDE8F08194F81E3294F81F22DE
:104190001B0443EA026394F81C22134394F81D2283
:1041A00043EA0223E36094F81A3294F81B221B04BA
:1041B00043EA026394F81822134394F8192243EA5D
:1041C00002232361C2E700BFF808002055AAFFFFC1
:1041D0005252614172724161F408002083690239D0
:1041E000023B99423DBF8278836A02FB0130002086
:1041F00070470129F8B504460D465DD98369994297
:104200005AD20378022B27D0032B37D0012B50D161
:1042100001EB5106016A01EB5621FFF7F0FC002883
:1042200047D1C6F30803216A23440136204601EB37
:10423000562193F83070FFF7E2FC002839D1C6F31D
:1042400008063444EB0794F8300047EA00204CBFDE
:104250000009C0F30B00F8BD016A01EB1521FFF75F
:10426000CEFC30BB6D0005F4FF7563192C4493F848
:10427000303094F8310043EA0020F8BD016A01EBC8
:10428000D511FFF7BCFCA0B9AD0005F4FE7505F132
:10429000300323442C44D8789A785B78000640EAAF
:1042A000024040EA032094F83030184320F0704078
:1042B000F8BD4FF0FF30F8BD0120F8BD70B50446E1
:1042C0000D46E1808168012901D1022070BD03689B
:1042D0009A699142F9D271B91A78032A01D1596ABF
:1042E00049B90022E2601A89AA42EED95B6A03EB5F
:1042F0001513236119E09E783601B5420ED320686C
:10430000FFF777FF431C014618D00128DDD9236849
:104310009B699842D9D2AD1BADB2EEE7E16020684F
:10432000FFF75CFF00EB15102061236805F00F0517
:10433000303303EB45136361002070BD012070BD75
:104340000129F8B504460D4616466FD9836999428E
:104350006CD20378022B38D0032B47D0012B61D1CC
:1043600001EB5107016A01EB5721FFF748FC0028D8
:1043700059D1C7F3080315F001052344F2B206D062
:1043800093F8301001F00F0141EA0212D2B283F823
:104390003020216A013701232371204601EB572188
:1043A000FFF72DFC00283ED1C7F30807274415B1BD
:1043B000C6F3071606E097F83030C6F3032623F05D
:1043C0000F031E4387F830602DE0016A01EB1521D1
:1043D000FFF715FC38BB6D0005F4FF75631983F812
:1043E0003060C6F3072683F831601CE0016A01EBF8
:1043F000D511FFF704FCB0B9AD0005F4FE7505F169
:10440000300323442544DA78120602F07042164342
:10441000C6F3072285F830605A70320C360E9A7057
:10442000DE7000E0022001232371F8BD0220F8BDF8
:10443000F8B505460F4631B9C6686EB183699E422C
:1044400028BF012609E0FFF7D4FE01283BD9AB695C
:10445000984239D33E4600E001263446AB69013428
:104460009C4204D3012E01D80020F8BD0224284626
:104470002146FFF7BEFE48B1411C02D14FF0FF308C
:10448000F8BD01281FD0B442E8D1EDE72846214607
:104490006FF07042FFF754FF98B947B92B69EC6091
:1044A0005A1C0CD0013B2B6101236B7107E028469D
:1044B00039462246FFF744FF0028EFD001E02046AE
:1044C000F8BD0128DAD00120F8BD2DE9F843C688EF
:1044D0000136B6B204460F4616B90420BDE8F8838B
:1044E0000369002BF9D016F00F085CD1C1680133C5
:1044F0000361006819B90389B342EED953E08278A9
:10450000013A12EA16124ED1FFF773FE0128054652
:1045100002D80220BDE8F883421C02D10120BDE888
:10452000F883206883699D4237D3002FD5D0E16896
:10453000FFF77EFF054600283ED00128E9D0431C46
:10454000ECD020680021FFF75AFB07460028E5D190
:104550002068394630304FF40072FFF732FBD4F850
:10456000009029464846FFF739FEC9F82C00236819
:104570009978FAB291420DD901221A71206800216E
:10458000FFF73DFB01370028C8D12368DA6A013202
:10459000DA62ECE7D96A8A1ADA62E56020682946AD
:1045A000FFF71CFE20612368E680303303EB4813DD
:1045B00063610020BDE8F8830720BDE8F8830000B0
:1045C0002DE9F84F4FF0FF08064644463068316940
:1045D000FFF715FB074600287ED175692B78002B65
:1045E0006CD0E97AE52B01F03F025ED0090702D5D5
:1045F0000F2A5AD101E00F2A47D1D6F81CB0BBF1DF
:10460000000F53D05A0606D503F0BF04F38895F87F
:104610000D80338401E0A34247D16B7B434544D1F5
:104620002F7827F04007013F0D235F434FF001092A
:104630004FF0000A2A4B1AF80330EA18EB5C507866
:1046400043EA0020B9F1000F0CD0FFF79FFAFE2FCC
:1046500081462AD83BF81700FFF798FA814524D104
:10466000013703E04FF6FF7398421ED10AF1010AA9
:10467000BAF10D0FDED12B785B0621D5B9F1000F11
:104680001ED03BF81730DBB10FE0E4B92846FFF746
:10469000A8FA804517D11FE00B2B1DD0E95C013330
:1046A000D01810F8010C8842F6D0FF2430460021C3
:1046B000FFF70BFF0746002888D00DE004270BE02A
:1046C000013CE4B2F2E74FF6FF73B2693384D37A68
:1046D00013F00103E9D1E1E73846BDE8F88F00BFE8
:1046E000A42402082DE9F74F0B782F2B06468946A4
:1046F00001D05C2B01D109F101090024B46099F8C3
:1047000000301F2B5ED830462146FFF7D7FD74617D
:104710000DE101333AF813102029FAD02E29F8D0F0
:104720000BB144F00304424632F8021D2E2901D099
:10473000013DF9D14FF0000B4FF008085F465A1CBD
:104740003AF81330002B40F08880B3691A78E52AD4
:1047500004BF05221A70B8F1080F04BFBF00FFB2F2
:1047600007F00C030C2B00F0B58007F00302032ABE
:1047700000F0B080A10709D407F00307012F08BF9C
:1047800044F01004042B08BF44F00804B369304619
:10479000DC720021FFF792FD10B93046FFF710FFE1
:1047A000B369DB7A002840F098805A0700F1BF8097
:1047B0007169CB7ADB0640F1978033681878FFF790
:1047C00035FBB0604F4609F101093B782F2BF9D03A
:1047D0005C2BF7D0D6F81CA000256C1C3B1913F8F5
:1047E000010C1F2816D92F2814D05C2812D0B4F53C
:1047F000807F00F096800121FFF7ACF9002800F0DF
:1048000090807F2817D84B4A12F8013F9BB1834212
:10481000FAD186E01F2899468CBF002404240AEBB5
:104820004503002D7DD033F8022D202A01D02E2AF9
:1048300007D1013DF5E70AEB4403254623F8020CB6
:10484000CBE700272AF815702021B0690B22FFF76B
:10485000B8F90AEB45083B465CE7202B03D02E2B2A
:1048600005D1AA425FD044F00304134667E7C3456D
:1048700002D2AA4216D156E0B8F10B0F04D144F08F
:1048800003044FF00B0860E7AA4203D044F003048E
:104890003FF65BAFBF00FFB22A464FF00B084FF068
:1048A000080BE2E77F2B0ED9184600210192FFF793
:1048B00051F9019A034618B11F490B4413F8803C83
:1048C00044F0020493B11D4810F8011FB9B1994298
:1048D000FAD10BE044F002044CE7042827D113F08E
:1048E000040F08BF052022E0052020E044F0030467
:1048F0005F23B16901F80B300BF1010BB5E7A3F1B0
:10490000410189B2192902D847F00207F1E7A3F162
:10491000610189B21929ECD8203B47F001079BB20D
:10492000E7E7062003E0B8F10B0FB3D1A7E703B028
:10493000BDE8F08F30250208B124020839250208AD
:104940002DE9F041FF2705463C4604262969002948
:1049500063D02868FFF753F9064600285ED16B69DB
:104960001A78002A64D0E52AD87A4DD02E2A4BD066
:1049700000F03F01000702D50F2945D101E00F29C2
:104980003BD1510605D502F0BF04EA885F7B2A843B
:1049900001E0A24238D15A7BBA4235D11A78EE6989
:1049A00002F03F020D21013A4A434FF0010E00216F
:1049B000224811F800C003EB0C0090F8018013F8B6
:1049C0000C0040EA0820BEF1000F06D0FE2A1BD8DA
:1049D00026F812008646013203E04FF6FF7C604560
:1049E00012D101310D29E3D11B785B0619D5FE2ABE
:1049F0000AD8002326F8123013E0ACB91846FFF7A6
:104A0000F0F8874210D115E0FF2428460021FFF777
:104A10005CFD0646002899D000E05EB100232B61C2
:104A200008E0013CE4B2F0E74FF6FF732B8401E0AD
:104A30000426F3E73046BDE8F08100BFA424020855
:104A400038B5C588018C4FF6FF73994208BF2946D7
:104A50000446FFF733FC0146B8B921692068FFF727
:104A6000CEF8014670B96369E5221A702368012205
:104A70001A71E388AB4208D22046FFF726FD0146B3
:104A80000028EAD0042908BF0221084638BD0129C0
:104A900070B504460D4622D9836999421FD2A36995
:104AA0009D4205D220462946FFF7A3FB064608B9DA
:104AB000002070BD012812D0411C0ED0204629468E
:104AC0000022FFF73DFC58B923695A1C03D001337B
:104AD0002361012363713546E1E7012070BD0220A7
:104AE00070BD73B51C4616460B220546FFF760F8ED
:104AF000052C0BD9B21E32F8023F03EBC4339BB234
:104B000003EB54045388A4B2002BF4D1072304F020
:104B10000F0101F13002392A88BF01F13702013B50
:104B200002A91944240901F8072CF0D102AA1A4459
:104B30007E2102F8081C9C4204D02A5D202A01D064
:104B40000134F8E7072B05D802AA1A44013312F8FA
:104B5000082C00E020222A550134072CF2D902B09B
:104B600070BD00002DE9FF418569C7690C2204462C
:104B7000294601A8FFF71CF89DF80F30DA071FD56A
:104B80000023EB720126E361284601A93A46334629
:104B9000FFF7A7FF20460021FFF790FB48B920460A
:104BA000FFF70EFD28B90136B6B2642EECD107200E
:104BB000AAE0042840F0A8809DF80F30EB72E7616E
:104BC0009DF80F309B070DD500239AB2013337F8BB
:104BD00012100029F9D102F119070D2397FBF3F701
:104BE000BFB200E0012720460021FFF767FB002845
:104BF00040F08A800646054620682169FEF7FFFFDF
:104C0000002840F0818063691B78E52B00D033B920
:104C100005B9E6880135ADB2BD4201D107E00546D0
:104C200020460121FFF751FC0028E5D06CE0012D62
:104C300050D020463146FFF741FB002864D1A069DF
:104C4000FEF7CFFF013D0646ADB220682169FEF7B1
:104C5000D6FF0346002B57D16269D4F81CE0567387
:104C60000F20E9B20D27D072481E78431373937654
:104C7000D3761F464FF6FF7C6345DFF894C018BF1C
:104C80003EF8103017F80CC002F80C3094444FEA8C
:104C900023288CF8018007F101074FF6FF7C18BF2D
:104CA0000130002B08BF63460D2FE3D1634502D0CE
:104CB0003EF810300BB941F0400111702368012219
:104CC0001A7120460021FFF700FCE8B9013DADB2A2
:104CD000002DBAD120682169FEF791FF054690B9F1
:104CE0006669294630462022FEF76BFF0B223046CC
:104CF000A169FEF75DFFA369DB7A03F01803337344
:104D0000236801221A71284604B0BDE8F08100BF73
:104D1000A424020848B9064A136803B1187009B1FF
:104D200000230B701160002070470B20704700BFFC
:104D3000F80800202DE9F0438FB016460191054692
:104D4000002800F089800023036005A901A802F073
:104D50001E02FFF7BDF8002840F0858002AB0B93E0
:104D600005A8424B01990C93FFF7BCFC0A9C10B9B3
:104D7000002C08BF062016F01C0F06F01F0742D0BB
:104D800048B1042802D105A8FFF7ECFE47F0080758
:104D90000A9C30B167E0E37A13F0110F62D1730718
:104DA0005CD43E0738D5FEF797FEC0F307230026F4
:104DB000A073E373DDF81480E672030C000E237415
:104DC00026776677A677E677607498F80000214624
:104DD000FFF72CF80123A676E6762675667588F827
:104DE00004300646C0B140463146D8F82C90FFF753
:104DF0004EFE002837D10598013EC6604946FEF7B1
:104E0000FEFE48B12FE000282DD1E37AD80627D442
:104E1000B10701D5DA0725D4059E3B0748BF47F007
:104E20002007F36AEB612C62AF7130782146FEF700
:104E3000FDFF2861A37FE27F1B0443EA0263227F18
:104E40001343627F2E6043EA02230020EB60A860D8
:104E5000A861F388AB8006E0092004E0082002E0A6
:104E6000042000E007200FB0BDE8F083FC0800201C
:104E70002DE9F84F9A460023CAF8003004460F4641
:104E80001646FEF7F7FE002840F0A280A379180628
:104E900000F19A80D90740F19A80E168A368CD1AA1
:104EA000AE4238BF3546002D00F08B80A368C3F3B7
:104EB0000802002A6CD1206890F802B00BF1FF3B89
:104EC0000BEA532B1BF0FF0B0AD10BB9206902E050
:104ED0006169FFF78EF9012809D9421C50D0606141
:104EE000D4F8009061694846FFF778F920B9A379B2
:104EF00063F07F03A37167E05FEA552800EB0B06C0
:104F000022D099F8023099F8010008EB0B029A427E
:104F100088BFCBEB03085FFA88F339463246FEF7C9
:104F2000E3F9A37968BB5B060BD5A369981B4045E1
:104F300007D207EB402004F124014FF40072FEF782
:104F400037FE4FEA482631E0A269B2421FD0A3796A
:104F500013F0400F04F124080AD0012399F801004E
:104F60004146FEF7E3F9A37958B923F04003A37152
:104F700023684146587832460123FEF7B5F930B12F
:104F8000A37963F07F03A3710120BDE8F88FA661C8
:104F9000A168C1F30801C1F50076B54238BF2E46BD
:104FA0002144384624313246FEF702FEA3683344DA
:104FB000A360DAF8003033443744CAF80030AD1B40
:104FC00071E72846BDE8F88F0220BDE8F88F07207A
:104FD000BDE8F88F2DE9F84F99460023C9F8003055
:104FE00004460F461546FEF745FE002840F0BC80FB
:104FF000A379180600F1AD80990740F1AD80E36810
:10500000DD4228BF0025DDB1A368C3F30802002AF2
:105010007BD1206890F802A00AF1FF3A0AEA532AED
:105020001AF0FF0A19D133B9216979B9FFF700FAEB
:105030000146206103E06169FFF7FAF9014629B9E9
:10504000A368E26893427DD9E3607BE00129A379FC
:105050001CD04A1C00F084806161A3795B060DD5E9
:105060002146A26951F8243B58780123FEF75EF9E6
:10507000A379002874D123F04003A371D4F800B0C1
:1050800061695846FFF7AAF820B9A37963F07F0356
:10509000A3715EE05FEA552800EB0A0624D09BF876
:1050A00002309BF8010008EB0A029A4288BFCAEB63
:1050B0000308394632465FFA88F3FEF737F90028CD
:1050C0004DD1A369991B41450BD204F1240007EB94
:1050D00041214FF40072FEF76BFDA37923F04003EA
:1050E000A3714FEA482622E0A369B3420CD0A2681C
:1050F000E3689A4208D29BF8010004F12401324689
:105100000123FEF7F1F850BBA661A068C0F30800C8
:10511000C0F50076B54238BF2E46204424303946CB
:105120003246FEF745FDA37943F04003A371A3681F
:105130003344A360D9F8003033443744C9F8003011
:10514000AD1B60E7A37943F02003A3710020BDE805
:10515000F88F0220BDE8F88F0720BDE8F88FA3790B
:1051600063F07F03A3710120BDE8F88F70B504469A
:10517000FEF780FD002848D1A37903F0200202F059
:10518000FF00002A41D05B060DD52146A26951F8E7
:10519000243B58780123FEF7C9F8002833D1A379BE
:1051A00023F04003A3712068E169FEF728FD06465D
:1051B00058BB256AEB7A43F02003EB72E3682B7748
:1051C000A3891B126B77E389AB77E37BEB772846E8
:1051D0002169FEF7FDFCFEF77FFCC0F30723A875ED
:1051E000EB75030C000E2B766876AE74EE74A37923
:1051F00023F02003A371236801221A712068BDE8FF
:105200007040FEF7B8BD012070BD70BD10B50446FA
:10521000FFF7ACFF00B9206010BD70B504460D4625
:10522000FEF728FD002840F09380A279160600F1D1
:105230008C80E3689D4203D912F0020F08BF1D461F
:105240000022A368A2600DB900254DE02068867891
:1052500076026BB1013B691EB1FBF6F1B3FBF6F2CE
:10526000914205D372421340A360ED1A61690AE0CE
:10527000216939B9FFF7DCF8012801462DD001304A
:1052800052D0216161610029DED0B5421AD9A379DB
:1052900020689A0704D5FFF7CBF8014618B910E04B
:1052A000FEF7A7FF01464B1C3ED0012915D9236804
:1052B0009B69994211D2A36861613344A360AD1B1D
:1052C000E3E73546A3682B44A360C5F30803002B2E
:1052D000BAD02068FEF782FF20B9A37963F07F037C
:1052E000A37132E000EB5525A368C3F3080313B3A1
:1052F000A26995421FD0A37913F0400F04F1240650
:105300000AD02368314658780123FEF70FF8A379B5
:1053100058B923F04003A3712368314658782A46D0
:105320000123FDF7E1FF28B1A37963F07F03A371A7
:10533000012070BDA561A368E268934207D9E360CC
:10534000A37943F02003A37101E0022070BD002087
:1053500070BD000030B587B00446019130B301A89C
:1053600021460022FEF7B4FD2568E0B903ABA36136
:10537000104BE36120460199FFF7B4F970B96169F8
:1053800031B1CB7ADB060DD52878FEF74FFDA06052
:10539000EB88A38020460021FEF790FF042801D06F
:1053A00028B100E005200023236000E0092007B0B9
:1053B00030BD00BFFC0800207FB504460E46FEF756
:1053C00059FC0546F8B926B920462946FEF776FF6E
:1053D00018E001ABA3610D4BE3612046FFF7B0FA83
:1053E000042801D1256100E060B920463146FEF76E
:1053F00055FC20460021FFF768F8042802D100235D
:10540000236100E00546284604B070BDFC0800207A
:1054100070B598B018AB06A943F85C0D0122184688
:10542000FEF756FD044600284BD103AB0C9306A8AB
:10543000254B01990D93FFF755F90446002840D1FB
:105440000B9E36B1F37A13F0010F0CBF0024072432
:1054500000E00624069B31461878FEF7E7FC054677
:10546000002C2ED1F37ADB0619D5012813D90FA809
:1054700006A92422FEF79CFB0FA802211195FEF736
:105480001DFF0446E8B90FA8FFF75AFA044620B1F9
:10549000042804D015E0022413E0072411E006A834
:1054A000FFF7CEFA044660B925B90698FEF763FC0B
:1054B000044606E006982946FFF7E9FA0446002864
:1054C000F3D0204618B070BDFC0800202DE9F04F45
:1054D00091B010AC44F8340DFEF7FEFA07A9074668
:1054E00001222046FEF7F4FC83460546002840F0E2
:1054F000AB8004AB0D9307A8554B03990E93FFF7B0
:10550000F1F88346B8B1042840F09E8007982946F8
:10551000FEF78EFF044638B101280FD0431C08BFA8
:105520004FF0010B02D00CE04FF0070B079821461B
:10553000FFF7ADFA88E04FF0080B85E04FF0020B63
:10554000F4E707982946FEF75AFB83460028EDD179
:10555000079E21463046FEF741FE06F130055946CA
:105560004FF4007280462846FEF72BFB2846202188
:105570000B22FEF726FB4FF02E0BC7F3074310223A
:105580005FFA87FAC7F307293F0E86F83B2086F8B3
:1055900048302846214686F830B086F846A086F87E
:1055A000479086F849700193FEF712FB06F1500C04
:1055B000604629462022CDF800C0FEF7F9FA079A86
:1055C00086F851B010780999DDF800C0032803D19E
:1055D000526A914208BF00216046FEF7F9FA079A25
:1055E0009678C6B1079808F1010302930123C0F829
:1055F0002C8003710021FEF702FB8346002895D121
:10560000284659464FF40072013EFEF7DAFAF6B228
:10561000DDF80880E5E707A8FFF7A4FA834600282D
:1056200084D10C981023C372019B037680F816A0D6
:1056300080F8179047762146FEF7CAFA07980123AB
:105640000371FEF798FB8346584611B0BDE8F08F12
:10565000FC0800202DE9F04F0F4687B01546E0B951
:1056600001291CD8531E134019D1CA4A1468C4B169
:105670002370FDF721FEC30715D400F0040303F0E7
:10568000FF0093B9012105AAFDF772FE08B10120C0
:1056900095E2059B7F2BFAD909E00B208FE21320BE
:1056A0008DE20C208BE2032089E20A2087E2002FA2
:1056B00014BF4FF000084FF03F08C8EB03030593F9
:1056C0006DB94FF4FA61B3FBF1F1B34A32F815202A
:1056D000914201D20135F8E7B04A32F815505FEA3D
:1056E000552905D0B9F1810F28BF4FF0800901E09D
:1056F0004FF00109B3FBF9F640F6F572964240F21D
:105700004C824FF6F572964240F25582B60006F290
:105710000726760A03254FF0000A4FF0200C0CEB09
:1057200008010AEB060B8B44C8EB09025A4493426A
:10573000029101D20E2042E20020032104AACDF8FA
:1057400000C0FDF715FEDDF800C0002840F0228201
:10575000049B013BB3F5004F80F01C82049A531E5A
:105760005B4452421340CBEB0303032D049304D15B
:10577000029A1A449C44029200E01E44059BCCEB22
:105780000302921BCAEB0202B2FBF9F2022D039252
:1057900005D1039940F6F5729142CBD90BE0032D68
:1057A00007D1039A4FF6F5739A42C3D94FF00C0B09
:1057B0000BE0022D07D1B3F5803F2CBF4FF0060B55
:1057C0004FF0040B01E04FF0010B002F50D104F11A
:1057D0003003184639464FF40072CDF800C00193EB
:1057E000FEF7EFF9FE2284F8F321059A84F8FA21F6
:1057F00008EB020043F6C161B0FBF1F184F8F5114A
:10580000049188083F2184F8F611C2F3072184F837
:10581000FB11110C120E84F8FD2155224FF0010EE0
:1058200084F82E2240F03F00AA2284F8F40184F884
:10583000FC1184F82F2284F8EFE184F8F0E184F879
:10584000F17184F8F2B184F8F77184F8F87184F892
:10585000F971019B384619463A467346FDF766FDD5
:10586000DDF800C000287FF412AF4FF0F80B01E024
:105870004FF0F00B04F13007384600214FF400726E
:10588000CDF800C0FEF79DF90B2238464449FEF7DB
:105890008FF90023022284F83B3084F83C20032D4A
:1058A00084F83D90DDF800C084F8413018BF022331
:1058B00084F84230059B84F83EC00122CCF3072CCB
:1058C000B3F5803F84F83FC084F8402005D284F8C7
:1058D00043301B1284F844300BE0C3F3072284F8F2
:1058E000503084F851201A0C1B0E84F8522084F892
:1058F00053303F2384F84830FF22002384F8493096
:1059000084F84A2084F84B3084F84D3084F84E30C7
:1059100084F84F3084F845B084F84C800193FEF74A
:10592000DBF8032D049082B2019B3DD1121284F862
:105930007420020C84F87520C6F3072284F85520E1
:10594000320C84F85620320E84F85720022284F854
:105950005C2084F85D30012284F85E3084F85F308A
:1059600084F8613084F86330802384F8730084F80D
:105970006020000E062284F87030292384F8760017
:1059800084F8546084F8622084F8723004F177005F
:10599000044923E0F80800208C2502087625020837
:1059A000412502084D250208030C84F85930C6F33E
:1059B000072384F84730802384F857001212000E22
:1059C00084F854307F4984F85A00292384F85820F9
:1059D00084F8466084F8563004F15B001322FEF729
:1059E000E7F8552384F82E32AA2384F82F320020BA
:1059F000394642460123FDF799FC00287FF447AE63
:105A0000032D05D1394608F106020123FDF78EFC6E
:105A1000384600214FF40072FEF7D3F8032D12D060
:105A2000694B012D18BF6FF0FF0343EA0B03FF2200
:105A3000049384F830301B0E84F8312084F832202F
:105A400084F833301CE06BF0FF03049384F83030AB
:105A5000FF2384F8313084F8323084F8333084F80E
:105A6000343084F8353084F8363084F8373084F8B0
:105A7000383084F8393084F83A300F2384F83B30DA
:105A8000029B39461A4603F1010B00200123FDF762
:105A90004DFC014600287FF4FAAD38464FF4007201
:105AA000FEF78FF801230493049BB34213D20BF14A
:105AB000010C002039465A460123CDF800C0FDF7FD
:105AC00035FCDDF800C000287FF4E1AD049B013314
:105AD0000493E346E8E75E46032D08BFCA465A46EC
